:020000040800F2
:100000000000022081050008D1050008D105000884
:10001000D1050008D1050008D10500080000000046
:10002000000000000000000000000000D1050008F2
:10003000D105000800000000D1050008D105000826
:10004000D1050008D1050008D1050008D105000838
:10005000D1050008D1050008BD020008D10500083F
:10006000D1050008D1050008D1050008D105000818
:10007000D1050008D1050008D1050008D105000808
:10008000D1050008D1050008D1050008D1050008F8
:10009000D1050008D1050008D1050008D1050008E8
:1000A000D1050008D1050008D1050008D1050008D8
:1000B000D1050008D1050008D1050008D1050008C8
:1000C000D1050008D1050008D1050008D1050008B8
:1000D000D1050008D1050008D1050008D1050008A8
:1000E000D1050008D1050008D1050008D105000898
:1000F000D1050008D1050008D1050008D105000888
:10010000D1050008D1050008D1050008D105000877
:10011000D1050008D1050008D1050008D105000867
:10012000D1050008D1050008D1050008D105000857
:10013000D1050008D1050008D1050008D105000847
:10014000D1050008D1050008D1050008D105000837
:10015000D1050008D1050008D1050008D105000827
:10016000D1050008D1050008D1050008D105000817
:10017000D1050008D1050008D105000800000000E5
:08018000D1050008D1050008BB
:100188000348044B834202D0034B03B1184770471E
:100198005000002050000020000000000548064BD9
:1001A8001B1AD90F01EBA301491002D0034B03B16D
:1001B8001847704750000020500000200000000041
:1001C80010B5064C237843B9FFF7DAFF044B13B197
:1001D8000448AFF300800123237010BD50000020B5
:1001E80000000000B807000808B5054B1BB1054919
:1001F8000548AFF30080BDE80840FFF7CFBF00BF58
:100208000000000054000020B80700082DE9F04164
:10021800182000F0DBF90546182000F0D7F906464B
:10022800082000F0D3F907461F4B1A6B42F008026A
:100238001A631A6B42F001021A635A6C42F4804244
:100248005A6401232B6000246C60AC60EC602C6164
:100258006C6134607460B460F4603461746104602B
:100268004360DFF84C802A460C21404600F058F8DD
:100278002A460D21404600F053F82A460E214046F2
:1002880000F04EF82A460F21404600F049F8074D85
:1002980032462146284600F043F83A462146284689
:1002A80000F09CF8FEE700BF003802400000024062
:1002B800000C024008B50C21164800F04DF9002347
:1002C80000E00133144A9342FBDD0D21114800F090
:1002D80043F9002300E001330F4A9342FBDD0E216E
:1002E8000C4800F039F9002300E001330A4A934230
:1002F800FBDD0F21074800F02FF9002300E0013350
:10030800054A9342FBDD054A536943F001035361F3
:1003180008BD00BF000C02409F860100003C014060
:1003280030B504684B004FF0030E0EFA03FE24EAC2
:100338000E040460046815689D402C4304604468FA
:100348004FF0010C0CFA01FC24EA0C0444604468E8
:1003580055688D402C434460846824EA0E04846008
:100368008468956805FA03FE44EA0E048460C4684C
:100378004FF0020E0EFA03FE24EA0E04C460C468AD
:10038800D56805FA03F32343C360C36923EA0C0362
:10039800C361C369146904FA01FC43EA0C03C3612D
:1003A80007290DD8036A89000F248C4023EA040327
:1003B8000362036A526902FA01F10B43036230BD1A
:1003C800436A89000F248C4023EA04034362436A8A
:1003D80052698A4013434362F1E7000030B5C1F324
:1003E800870301F0030EC9B34C1E0E2C09D8DFE8B1
:1003F80004F0640B0E1114171A1D202326292C2F24
:1004080032004FF0000C2BE04FF0080C28E04FF0C2
:10041800090C25E04FF00A0C22E04FF0170C1FE002
:100428004FF0170C1CE04FF0170C19E04FF0170CA9
:1004380016E04FF0170C13E04FF0280C10E04FF0C7
:10044800280C0DE04FF0280C0AE04FF0280C07E0CC
:100458004FF0280C04E04FF0280C01E04FF0060C98
:100468001468002C5CD19C1C384D55F8244005F5C7
:100478004845A84226D005F58065A84242D005F532
:100488008065A84240D005F58065A8423ED005F5B4
:100498008065A8423CD005F58065A8423AD005F5AC
:1004A8008065A84238D005F58065A84236D005F5A4
:1004B8008065A84204D0002005E04FF0070CCFE784
:1004C800082000E000204FEA8E0E00FA0EF02043CC
:1004D80002331E4C44F8230004F58064206801238D
:1004E80003FA01FE40EA0E0020604FEA5C1E0CF0A1
:1004F8001F0C174C54F82E0003FA0CF3034344F86E
:100508002E3013E00120DEE70220DCE70320DAE7E3
:100518000420D8E70520D6E70620D4E70720D2E74D
:100528000C4C63680120884003436360536833B907
:100538000848836801228A401343836030BD054818
:10054800C36801228A401343C360F7E700380140BB
:1005580000E100E0003C0140436901228A40534029
:1005680043617047034AD2F8883043F47003C2F8F5
:100578008830704700ED00E0DFF834D00D480E49B0
:100588000E4A002302E0D458C4500433C4188C42E5
:10059800F9D30B4A0B4C002301E013600432A2424A
:1005A800FBD3FFF7DFFF00F0CFF8FFF72FFE704710
:1005B800000002200000002050000020D80700089A
:1005C80050000020B8010020FEE70000024B014661
:1005D800186800F025B800BF0000002070B50F4E65
:1005E8000C463168054611B900F09EF83060214686
:1005F800284600F099F8431C03D14FF0FF342046F9
:1006080070BDC41C24F00304A042F8D0211A284667
:1006180000F08AF80130F2D1EFE700BF6C0000204B
:100628002DE9F041CD1C25F0030508350C2D38BF08
:100638000C25002D064601DBA94204D90C233360A2
:100648000020BDE8F081314F00F062F83B681C469D
:1006580044BB29463046FFF7C1FF431C044650D12E
:100668003C682146002941D1002C44D023683046FB
:1006780004EB030800F058F880453CD121686D1A56
:1006880029463046FFF7AAFF013034D023682B44AF
:1006980023603B68002B36D05A68A24229D1002239
:1006A8005A600EE02268521B1DD40B2A16D9611914
:1006B800A342256018BF5960636808BF396062515A
:1006C8004B60304600F02AF804F10B00231D20F09F
:1006D8000700C21AB5D01B1AA350B2E7A34262683A
:1006E800DED13A60EDE723466468B1E70C46496815
:1006F800B8E71346CEE70C233360304600F00EF817
:100708009EE70560DDE75B60FFDE00BF700000204C
:10071800014800F03DB800BFB0010020014800F0DA
:1007280038B800BFB001002038B5064D0023044694
:1007380008462B6000F02EF8431C02D12B6803B149
:10074800236038BDAC01002070B50D4D0D4C641B05
:10075800A4100026A64209D10B4D0C4C00F028F835
:10076800641BA4100026A64205D170BD55F8043BB1
:1007780098470136EEE755F8043B98470136F2E70B
:10078800D0070008D0070008D0070008D4070008E1
:1007980070477047044A05491368002B08BF0B4689
:1007A8001844106018467047B4010020B8010020B2
:1007B800F8B500BFF8BC08BC9E467047F8B500BF46
:0807C800F8BC08BC9E46704716
:0407D000F10100082B
:0407D400C90100084F
:1007D800040000200000000074000020DC0000205D
:1007E800440100200000000000000000000000009C
:1007F80000000000000000000000000000000000F1
:1008080000000000000000000000000000000000E0
:1008180000000000000000000000000000000000D0
:040000050800058169
:00000001FF
