:020000040800F2
:10000000000002204504000895040008950400083B
:1000100095040008950400089504000800000000FD
:10002000000000000000000000000000950400082F
:1000300095040008000000009504000895040008DD
:10004000950400089504000895040008950400082C
:10005000950400089504000895040008950400081C
:10006000950400089504000895040008950400080C
:1000700095040008950400089504000895040008FC
:1000800095040008950400089504000895040008EC
:1000900095040008950400089504000895040008DC
:1000A00095040008950400089504000895040008CC
:1000B00095040008950400089504000895040008BC
:1000C00095040008950400089504000895040008AC
:1000D000950400089504000895040008950400089C
:1000E000950400089504000895040008950400088C
:1000F000950400089504000895040008950400087C
:10010000950400089504000895040008950400086B
:10011000950400089504000895040008950400085B
:10012000950400089504000895040008950400084B
:10013000950400089504000895040008950400083B
:10014000950400089504000895040008950400082B
:10015000950400089504000895040008950400081B
:10016000950400089504000895040008950400080B
:10017000950400089504000895040008000000009C
:08018000950400089504000835
:100188000348044B834202D0034B03B1184770471E
:100198005000002050000020000000000548064BD9
:1001A8001B1AD90F01EBA301491002D0034B03B16D
:1001B8001847704750000020500000200000000041
:1001C80010B5064C237843B9FFF7DAFF044B13B197
:1001D8000448AFF300800123237010BD50000020B5
:1001E800000000007C06000808B5054B1BB1054956
:1001F8000548AFF30080BDE80840FFF7CFBF00BF58
:1002080000000000540000207C0600082DE9F041A1
:1002180082B04FF001088DF80780182000F038F9F7
:10022800044602260660002545608660C5600521F3
:1002380041611F4B1A6B42EA08021A631A6C42F4B6
:1002480080421A641B4F0246384600F037F82246AF
:100258000621384600F032F822460721384600F0D9
:100268002DF8202000F014F90146042303604560AE
:1002780085604FF44073C36005613823436186612C
:10028800C0F81C800C4800F076F808E001338DF8BF
:10029800073001220DF10701074800F094F89DF896
:1002A8000730042BF2D900238DF80730F7E700BF99
:1002B80000380240000002400038004030B50468B1
:1002C8004B004FF0030E0EFA03FE24EA0E040460FE
:1002D800046815689D402C43046044684FF0010C85
:1002E8000CFA01FC24EA0C044460446855688D400B
:1002F8002C434460846824EA0E048460846895680A
:1003080005FA03FE44EA0E048460C4684FF0020E46
:100318000EFA03FE24EA0E04C460C468D56805FA20
:1003280003F32343C360C36923EA0C03C361C369AE
:10033800146904FA01FC43EA0C03C36107290DD8C8
:10034800036A89000F248C4023EA04030362036ACA
:10035800526902FA01F10B43036230BD436A890016
:100368000F248C4023EA04034362436A52698A409B
:1003780013434362F1E7036800230360036843F013
:10038800400303600368CA681343036003680A688C
:100398001343036003684A681343036003688A6869
:1003A8001343036003680A691343036003684A69D7
:1003B8001343036003688A69134303600368CA69C7
:1003C80013430360704772B300B583B008E0BDF80B
:1003D80006309BB2C2681343C36072466146FAB1E5
:1003E8000023ADF80630836813F0020FFBD08C466B
:1003F8001CF8013BADF8063002F1FF3E036813F428
:10040800006FE4D091F801C0BDF806309BB243EA12
:100418000C23ADF80630A2F1020E01F1020CD6E76A
:1004280003B05DF804FB7047034AD2F8883043F400
:100438007003C2F88830704700ED00E0DFF834D070
:100448000D480E490E4A002302E0D458C450043324
:10045800C4188C42F9D30B4A0B4C002301E01360FB
:100468000432A242FBD3FFF7DFFF00F0CFF8FFF71B
:10047800CDFE704700000220000000205000002040
:100488009C06000850000020B8010020FEE700008C
:10049800024B0146186800F025B800BF0000002094
:1004A80070B50F4E0C463168054611B900F09EF83C
:1004B80030602146284600F099F8431C03D14FF0DC
:1004C800FF34204670BDC41C24F00304A042F8D0B9
:1004D800211A284600F08AF80130F2D1EFE700BF70
:1004E8006C0000202DE9F041CD1C25F003050835EE
:1004F8000C2D38BF0C25002D064601DBA94204D976
:100508000C2333600020BDE8F081314F00F062F821
:100518003B681C4644BB29463046FFF7C1FF431CD5
:10052800044650D13C682146002941D1002C44D0D2
:100538002368304604EB030800F058F880453CD1A6
:1005480021686D1A29463046FFF7AAFF013034D0DA
:1005580023682B4423603B68002B36D05A68A2429C
:1005680029D100225A600EE02268521B1DD40B2AA2
:1005780016D96119A342256018BF5960636808BF7E
:10058800396062514B60304600F02AF804F10B00E4
:10059800231D20F00700C21AB5D01B1AA350B2E7DA
:1005A800A3426268DED13A60EDE723466468B1E7AA
:1005B8000C464968B8E71346CEE70C23336030464B
:1005C80000F00EF89EE70560DDE75B60FFDE00BF28
:1005D80070000020014800F03DB800BFB0010020C5
:1005E800014800F038B800BFB001002038B5064D0A
:1005F8000023044608462B6000F02EF8431C02D165
:100608002B6803B1236038BDAC01002070B50D4DD7
:100618000D4C641BA4100026A64209D10B4D0C4CAE
:1006280000F028F8641BA4100026A64205D170BD6E
:1006380055F8043B98470136EEE755F8043B9847D0
:100648000136F2E7940600089406000894060008AC
:100658009806000870477047044A05491368002B3C
:1006680008BF0B461844106018467047B4010020B4
:10067800B8010020F8B500BFF8BC08BC9E4670471A
:0C068800F8B500BFF8BC08BC9E467047E7
:04069400F101000868
:04069800C90100088C
:10069C00040000200000000074000020DC0000209A
:1006AC0044010020000000000000000000000000D9
:1006BC00000000000000000000000000000000002E
:1006CC00000000000000000000000000000000001E
:1006DC00000000000000000000000000000000000E
:0400000508000445A6
:00000001FF
